:100000000C94B0030C94D8030C94D8030C94D8032C
:100010000C94D8030C94D8030C94D8030C94D803F4
:100020000C94D8030C94D8030C94D8030C94D803E4
:100030000C94D8030C94D8030C94D8030C94D803D4
:100040000C9402350C94D8030C94D8030C94D80368
:100050000C94D8030C94D8030C94D8030C94D803B4
:100060000C94D8030C94D8030B1616161E161E16E5
:100070002F16461653165316531653161E161E16D3
:10008000611669166916691676168F1644757261BF
:10009000746120576869726C706F6F6C0050726F7A
:1000A0006365646F2D3E20204F6B20202D2D2D0089
:1000B00054656D702E5261676769756E74610020BA
:1000C0002020496E697A696F2074726120202000B7
:1000D000496D706F73746120205269746172646F2E
:1000E000004E6F205369005269746172646F202062
:1000F000496E697A696F3F0041747469766F205068
:100100006F6D70610065272070726F6E74612100E1
:100110004C6120747561206269727261002D2D2D11
:1001200020202D2D2D2020204F6B20202D2D2D0027
:10013000202020205445535420494F44494F20202B
:10014000202000202D2050617573612020506F6D9C
:100150007061202D200052697072656E64692020E4
:10016000436F7474613F0041637175612020416782
:100170006769756E74613F002D2D2D20202D2D2D6A
:10018000202045736369202D2D2D00202020202064
:10019000496E20506175736120202020200020527C
:1001A00069636F6E6F7363696D656E74692000209B
:1001B000204D454D4F52494120205049454E412048
:1001C000200020202020415454454E5A494F4E458E
:1001D00020202020002020454550524F4D202070E7
:1001E000726F6E7461202000496E697A69616C6972
:1001F0007A7A6F20454550524F4D00496E697A69B1
:10020000616C697A7A617A696F6E650052696365BB
:100210007474612043616E63656C6C61746100434A
:10022000616E63656C6C617A696F6E652E2E2E202F
:100230002000300043616E63656C6C6F205269630F
:1002400065747461200020526963657474612020B4
:1002500053616C76617461202000202053616C76BC
:100260006174616767696F2E2E2E2020003F003079
:100270000053616C766F202052696365747461204D
:100280000020436172696361746120003000205274
:1002900069632E20002043617269636F2052696395
:1002A000657474612E2E2E200053552A202A47494A
:1002B000552020496E642E20204F6B00203E2000E8
:1002C0003000204E455353554E412020524943455E
:1002D000545441202000496E697A69616C697A7AC8
:1002E000617A696F6E650043616E63656C6C612055
:1002F00052696365747461002053616C76612020DB
:10030000526963657474612000204361726963619E
:100310002052696365747461200047657374696F66
:100320006E6520526963657474650027002920207A
:10033000004C7570706F6C6F202800426F6C6C6998
:10034000747572612020202020004E756D65726FDB
:10035000204C7570706F6C69202000270053657405
:1003600020204175746F6D617A696F6E6500202081
:1003700043616C646F002046726564646F002020E6
:1003800020204F666600202020204F6666005369BB
:10039000004E6F002041747469766F005061737372
:1003A00069766F00204F6E004F66660027002700B9
:1003B00045737465726E6F00496E7465726E6F007E
:1003C000506172616D6574726920556E6974612740
:1003D00000250020202020202047617300456C6507
:1003E00074747269636F00202020504944202D2DC1
:1003F0002050574D202020004D454E552020434F82
:100400004E4649475552415A494F4E4500496E693B
:100410007A696F20574849524C504F4F4C00524117
:10042000464652454444414D454E544F0049726939
:100430007368204D6F7373004C7570706F6C6F2014
:100440000025200050574D3D00204155544F202D90
:100450002D3E20426F6C6C69747572612000526988
:100460006D756F766920204D616C746F202000538C
:10047000746570205375636365737369766F3F208D
:10048000002D2D2A202A2D2D2D2054656D706F20D2
:10049000506D70002D2D2A202A2D2D2D20202D2D40
:1004A0002D2020506D700053552A202A4749552091
:1004B000202D2D2D2020506D700053552A202A47C5
:1004C000495520202D2D2D20202D2D2D0053552A2E
:1004D000202A4749552050617573612053545000BC
:1004E00053552A202A474955205061757361202DA4
:1004F0002D2D00204155544F202D2D3E2000204110
:10050000676769756E6769204D616C746F20004D77
:100510004F44414C49544127204155544F4D41547B
:100520004943410053552A202A4749552020526506
:10053000732020506D70004D4F44414C4954412769
:1005400020204D414E55414C450053752020202D13
:100550002D2D20204573636920204F6B002D2D2DFC
:10056000202047697520204573636920204F6B0068
:10057000537520202047697520204573636920202A
:100580004F6B0053552A202A47495520202D2D2DE9
:100590002020204F6B0053552A202A4749552053CD
:1005A000616C746120204F6B00202D2D2D2D002DAE
:1005B0002D2D2D00202D2D2D2D2D002D2D2D2D2DD2
:1005C0002020002D2D2D20204D414E204155544FEF
:1005D0002053455455500050726F6365646F2D3E33
:1005E00020204F6B2045736369004F70656E20417A
:1005F000726442697200322E382E335243003A0040
:100600003A002000005EBCE2613FDD83C29C7E2098
:10061000A3FD1F419DC3217FFCA2401E5F01E3BDDE
:100620003E6082DC237D9FC1421CFEA0E1BF5D03D2
:1006300080DE3C62BEE0025CDF81633D7C22C09EC6
:100640001D43A1FF4618FAA427799BC584DA3866B2
:10065000E5BB5907DB856739BAE406581947A5FB9E
:100660007826C49A653BD987045AB8E6A7F91B4592
:10067000C6987A24F8A6441A99C7257B3A6486D886
:100680005B05E7B98CD2306EEDB3510F4E10F2AC72
:100690002F7193CD114FADF3702ECC92D38D6F315E
:1006A000B2EC0E50AFF1134DCE90722C6D33D18F52
:1006B0000C52B0EE326C8ED0530DEFB1F0AE4C1246
:1006C00091CF2D73CA947628ABF517490856B4EA32
:1006D0006937D58B5709EBB536688AD495CB29771E
:1006E000F4AA4816E9B7550B88D6346A2B7597C912
:1006F0004A14F6A8742AC896154BA9F7B6E80A5406
:10070000D7896B35000000080002010000030407D0
:1007100000000000000000000102040810204080DA
:10072000010204081020010204081020040404043B
:10073000040404040202020202020303030303038B
:100740000000000023002600290000000000250012
:1007500028002B0000000000240027002A00F411CC
:1007600011241FBECFEFD8E0DEBFCDBF15E0A0E063
:10077000B1E0E6E1F7E702C005900D92AA37B107B4
:10078000D9F726E0AAE7B5E001C01D92A233B2076F
:10079000E1F717E0C0E6D7E004C02297FE010E940F
:1007A0003A3BCE35D107C9F70E94C7380C94893B34
:1007B0000C9400000C94733B0C947B3BCF92DF9223
:1007C000EF92FF92CF93DF93D82FC0E06B01EE241E
:1007D000D7FCE094FE2CCD17A1F061E088E00E94E8
:1007E0004B36C701B6010E947B3560E088E00E946D
:1007F0004B366BE470E080E090E00E947B35CF5F89
:10080000EACFDF91CF91FF90EF90DF90CF900895E6
:10081000CF93DF93D82FC0E0CD1741F062E076E0B0
:1008200083E096E00E94E836CF5FF6CFDF91CF916C
:100830000895CF92DF92EF92FF92CF93DF936B01F7
:100840007C01D42F20E030E040E251EC0E943C39A2
:1008500018165CF0C1E020E030E048EC52ECC70133
:10086000B6010E948B3A18160CF0C0E020E030E090
:10087000A901C701B6010E943C3987FF0BC020E0E7
:1008800030E040E251ECC701B6010E948B3A1816E5
:100890000CF4C2E020E030E040E251E4C701B601D0
:1008A0000E943C3987FF09C020E030E0A901C70160
:1008B000B6010E948B3A87FFC3E020E030E048ECAD
:1008C00052E4C701B6010E943C3987FF0AC020E00C
:1008D00030E040E251E4C701B6010E948B3A87FF45
:1008E000C2E020E030E04AE754E4C701B6010E94CC
:1008F0003C3987FF0AC020E030E048EC52E4C701F1
:10090000B6010E948B3A87FFC1E020E030E04AE761
:1009100054E4C701B6010E948B3A880F880B8C23E0
:100920008D0FDF91CF91FF90EF90DF90CF900C94DF
:1009300008040F931F93CF93DF931F92CDB7DEB7B9
:100940008C0101960E94DA03682FC80169830E9416
:10095000DA0369810E94C138BC0180E090E00E9406
:10096000D9390F90DF91CF911F910F9108950F9377
:100970001F93CF93DF931F92CDB7DEB78C01019603
:100980000E94DA03682FC80169830E94DA03698133
:100990000E94C138BC0180E090E00E94D9390F90DC
:1009A000DF91CF911F910F9108951F93CF93DF9304
:1009B000EC01162F672F0E94DC03612FCE010196F8
:1009C000DF91CF911F910C94DC035F926F927F9225
:1009D0008F929F92AF92BF92CF92DF92EF92FF924F
:1009E0000F931F93CF93DF936B017C01D42F122FB2
:1009F00020E13EE040E050E00E94163BC22F2CE395
:100A0000822E912CA12CB12CA50194010E94163BA1
:100A1000622E522EC701B601A50194010E94163B19
:100A2000F62EE62E412F6D2F83E096E00E94752F63
:100A3000023049F489E08C1730F069ED72E083E010
:100A400096E00E940B374AE050E06C2F83E096E07E
:100A50000E94CC3760E076E083E096E00E94E836C2
:100A600089E0851530F069ED72E083E096E00E9440
:100A70000B374AE050E0662D83E096E00E94CC37C9
:100A80006EEF75E083E096E00E94E83689E08E150F
:100A900030F069ED72E083E096E00E940B374AE0A7
:100AA00050E06F2D83E096E0DF91CF911F910F9181
:100AB000FF90EF90DF90CF90BF90AF909F908F907E
:100AC0007F906F905F900C94CC370F931F93CF93D0
:100AD000C82F8B010E948136892B11F080E012C053
:100AE000B801882777FD8095982F0E947B358C2F41
:100AF0000E948136892B91F78C2F0E948136892B99
:100B0000D9F381E0CF911F910F9108950F931F9317
:100B1000CF93DF93EC018B0180E10E948136892B1A
:100B200091F48881813039F00E944C35F80160835E
:100B300071838283938381E0888363E270E080E045
:100B400090E00E947B3581E10E948136892B91F4EF
:100B50008881823039F00E944C35F80160837183BE
:100B60008283938382E0888363E270E080E090E098
:100B70000E947B3580E10E9481368C0181E10E94D8
:100B80008136892B19F0012B09F0188280E0DF9162
:100B9000CF911F910F9108958F929F92AF92BF9224
:100BA000CF92DF92EF92FF92CF93DF93EC01888098
:100BB0009980AA80BB80C501B4010E94A83988270A
:100BC00077FD8095982F0E94DB396B017C019B019A
:100BD000AC01C501B4010E94D73820E030E04AE7FB
:100BE00054E40E948F3A20E030E041E653E40E9452
:100BF00040390E94A839882777FD8095982F0E9458
:100C0000DB3920E030E040E85EE30E948F3A9B0150
:100C1000AC01C701B6010E94D838688379838A8302
:100C20009B83DF91CF91FF90EF90DF90CF90BF90AB
:100C3000AF909F908F900895CF93DF93EC0120E0C9
:100C400030E040E85DE3688179818A819B810E9480
:100C50008F3A26E636E646EE5FE30E948F3A20E0C2
:100C600030E040E052E40E94D838688379838A8378
:100C70009B83CE010E94CC0520E030E040E851E4A7
:100C8000688179818A819B810E948F3A6883798308
:100C90008A839B83DF91CF910895CF93DF93EC01FB
:100CA00020E030E040E85DE3688179818A819B81C2
:100CB0000E948F3A20E030E040E052E40E94D738B2
:100CC00026E636E646EE5FE30E9440396883798384
:100CD0008A839B83CE010E94CC0520E030E040E86F
:100CE00051E4688179818A819B810E948F3A68836F
:100CF00079838A839B83DF91CF9108952F923F92CE
:100D00004F925F926F927F928F929F92AF92BF921B
:100D1000CF92EF92FF920F931F93CF93DF93EC014B
:100D20004B013A015901170128011C2D8881998135
:100D30006817790714F47983688388819981861507
:100D4000970514F47982688263E270E080E090E0B5
:100D50000E947B35113011F480E103C0123031F470
:100D600081E10E948136892B19F03BC01123C9F122
:100D70000E944C356219730984099509603A7F40D5
:100D80008105910510F08AE00CC00E944C35621973
:100D9000730984099509603D77408105910538F014
:100DA00085E09501829F5001839FB00C1124113082
:100DB00051F4888199818A0D9B1D881699067CF4CF
:100DC000998288820EC0123061F4888199818A19D3
:100DD0009B09861597051CF47982688202C0998365
:100DE000888380E090E0DF91CF911F910F91FF9079
:100DF000EF90CF90BF90AF909F908F907F906F902B
:100E00005F904F903F902F9008952F923F924F9276
:100E10005F926F927F928F929F92AF92BF92CF928A
:100E2000DF92EF92FF920F931F93CF93DF9300D047
:100E300000D0CDB7DEB71C0149835A836B837C8316
:100E400028013901198D9A01AB01DC016D917D9169
:100E50008D919C910E948B3A18164CF489819A814D
:100E6000AB81BC81F10180839183A283B383A30111
:100E70009201D1016D917D918D919C910E943C399F
:100E800087FF05C0F101408251826282738263E272
:100E900070E080E090E00E947B35113011F480E139
:100EA00003C0123031F481E10E948136892B21F098
:100EB0006DC0112309F46AC00E944C356819790984
:100EC0008A099B09603A7F408105910528F020E05E
:100ED00030E040EA51E40FC00E944C3568197909AE
:100EE0008A099B09603D77408105910550F020E01B
:100EF00030E040E850E4C701B6010E948F3A6B0130
:100F00007C01113021F5D1012D913D914D915C91E4
:100F1000C701B6010E94D8386B017C0129813A8152
:100F20004B815C810E948B3A181654F489819A8116
:100F3000AB81BC81F10180839183A283B38326C0FE
:100F4000D101CD92DD92ED92FC9213971FC0123029
:100F5000E9F4A7019601F101608171818281938199
:100F60000E94D7386B017C01A30192010E943C3999
:100F700087FF07C0D1014D925D926D927C921397CD
:100F800005C0F101C082D182E282F38260E070E0AC
:100F9000CB010F900F900F900F90DF91CF911F9189
:100FA0000F91FF90EF90DF90CF90BF90AF909F9008
:100FB0008F907F906F905F904F903F902F9008950B
:100FC0006F927F928F929F92AF92BF92CF92DF9259
:100FD000EF92FF920F931F93CF93DF93EC01D62EE6
:100FE000742E622E470158011C2D8881681708F461
:100FF00068838881871508F4788263E270E080E076
:1010000090E00E947B35113011F480E103C0123072
:1010100031F481E10E948136892B21F042C01123F5
:1010200009F43FC00E944C35681979098A099B0967
:10103000603A7F408105910510F02AE00CC00E94C3
:101040004C35681979098A099B09603D774081050B
:10105000910528F025E0629EC001112402C0862D72
:1010600090E0113071F46880AC01460D511D2D2DBA
:1010700030E02417350714F4D88213C0680E688254
:1010800010C0123071F46881262F30E0281B390B14
:10109000472D50E02417350714F4788202C0681BEE
:1010A000688380E0DF91CF911F910F91FF90EF90C7
:1010B000DF90CF90BF90AF909F908F907F906F9078
:1010C00008950F931F93CF93DF938A01E901462F71
:1010D000682F83E096E00E94752FB80183E096E0C8
:1010E0000E940B37BE01882777FD8095982FDF91EE
:1010F000CF911F910F910C947B35482F60E083E0D6
:1011000096E00E94752F84E10C94080482E00E940E
:101110007D0883E00C947D0843E061E083E096E085
:101120000E94752F67ED75E083E096E00C94E83639
:101130000F93BC01882777FD8095982F02E022E06D
:101140004BE00E94E5040F9108950F93BC0188279E
:1011500077FD8095982F02E022E046E00E94E504AA
:101160000F91089540E060E083E096E00E94752FC3
:101170006BEB75E083E096E00E94E83640E06EE0BD
:1011800083E096E00E94752F64EB75E083E096E0C3
:101190000E94E83642E061E083E096E00E94752F0D
:1011A0006FEA75E083E096E00E94E83642E06EE088
:1011B00083E096E00E94752F69EA75E083E096E08F
:1011C0000C94E83643E061E083E096E00E94752FDE
:1011D00066E975E083E096E00C94E83643E061E070
:1011E00083E096E00E94752F63E875E083E096E067
:1011F0000C94E83643E061E083E096E00E94752FAE
:1012000060E775E083E096E00C94E83643E061E047
:1012100083E096E00E94752F6DE575E083E096E02F
:101220000C94E83643E061E083E096E00E94752F7D
:101230006AE475E083E096E00C94E83683E096E09B
:101240000E946E2F40E061E083E096E00E94752FDF
:1012500067E375E083E096E00C94E83683E096E07F
:101260000E946E2F40E060E083E096E00E94752FC0
:101270006FE075E083E096E00C94E83642E062E0CF
:1012800083E096E00E94752F6EEF74E083E096E0B5
:101290000E94E8360C948C0842E062E083E096E01D
:1012A0000E94752F6FE674E083E096E00E94E836B6
:1012B0000C948C0842E063E083E096E00E94752F76
:1012C0006EE574E083E096E00E94E8360C948C08AA
:1012D00042E061E083E096E00E94752F89E00C9483
:1012E0000804CF93C82F40E06AE083E096E00E94B4
:1012F000752F68E374E083E096E00E94E836CA3018
:1013000018F481E00E9408046C2F70E06F5F7F4F3B
:101310004AE050E083E096E0CF910C94B73740E08C
:101320006AE083E096E00E94752F6DE274E083E04E
:1013300096E00C94E83683E096E00E946E2F41E040
:1013400063E083E096E00E94752F6EE174E083E035
:1013500096E00E94E8360C948C0883E096E00E94A8
:101360006E2F41E062E083E096E00E94752F6DE011
:1013700074E083E096E00E94E8360C948C0883E0E9
:1013800096E00E946E2F40E060E083E096E00E94CD
:10139000752F68EF73E083E096E00C94E83641E047
:1013A00062E083E096E00E94752F67EE73E083E0D1
:1013B00096E00E94E83682E00E947D080C940609BF
:1013C000E82FF0E0EE0FFF1FE956FD4F40815181FD
:1013D00020E030E062E081E00E9461080C94EE08B9
:1013E000CF92DF92EF92FF92CF937C01C62F42E023
:1013F00061110DC06AE083E096E00E94752FEF282E
:1014000019F46DED73E03BC063ED73E038C06DE03F
:1014100083E096E00E94752F81E00E9408048FEF20
:101420008C0F8630A8F5C63041F081E00E94080498
:10143000C43018F424E6E21AF1088CEF8C0F8230E5
:1014400038F48AEF9701829F7001839FF00C11247A
:10145000B701882777FD8095982F0E94DB3940E0FF
:1014600050E00E9419044AE050E0B70183E096E0A2
:101470000E94B737C63009F042C061ED73E083E0E7
:1014800096E0CF91FF90EF90DF90CF900C94E836EC
:10149000B701882777FD8095982F0E94DB396B0173
:1014A0007C01C73069F420E030E048E452E4C70131
:1014B000B6010E94D73820E030E040E251E408C095
:1014C000C83051F420E030E040E251E4C701B601F9
:1014D0000E9440396B017C014EEF5FEFC701B601FE
:1014E0000E94190422E030E0B701A60183E096E0F3
:1014F000CF91FF90EF90DF90CF900C94BE38CF91BA
:10150000FF90EF90DF90CF90089541E062E083E09C
:1015100096E00E94752F60EC73E083E096E00E94F5
:10152000E83682E00E947D080C94FA08E82FF0E08B
:10153000EE0FFF1FE35AFD4F4081518120E030E064
:1015400062E081E00E9461080C94EE0841E062E0F4
:1015500083E096E00E94752F6DE573E083E096E0EE
:101560000E94E8360C94FA08CF93C82FE82FF0E0D9
:10157000EE0FFF1FEF57FD4F4081518120E030E01B
:1015800062E081E00E946108CC2319F0C650C230AD
:1015900018F4CF910C94EE08CF910C94E208CF93FD
:1015A000DF93EC0142E06CE083E096E00E94752F4F
:1015B000BE01882777FD8095982F0E94DB3942E095
:1015C00050E00E9419044AE050E0BE0183E096E03A
:1015D0000E94B7376BE573E083E096E00E94E8363F
:1015E000DF91CF910C94EE0842E061E083E096E059
:1015F0000E94752F6AE473E083E096E00E94E8366B
:101600000C94EE08CF93C82F42E061E183E096E0AE
:101610000E94752FCA3018F481E00E9408044AE045
:1016200050E06C2F83E096E0CF910C94CC3742E0F1
:1016300061E083E096E00E94752F6BE373E083E046
:1016400096E00E94E8360C94EE08CF93C82F42E053
:1016500061E083E096E00E94752F61E373E083E030
:1016600096E00E94E8366C2F70E080E090E00E94E7
:10167000D9394EEF5FEF0E9419044AE050E06C2F19
:1016800083E096E00E94CC376DE273E083E096E061
:101690000E94E836CF910C94EE08CF93DF93EC01D3
:1016A00042E06FE083E096E00E94752FBE0188273C
:1016B00077FD8095982F0E94DB394FEF5FEF0E94F6
:1016C00019044AE050E0BE0183E096E00E94B7377B
:1016D0006BE273E083E096E0DF91CF910C94E83603
:1016E00041E062E083E096E00E94752F6AE173E0DA
:1016F00083E096E00E94E83682E00E947D080C9428
:10170000FA0842E062E083E096E00E94752F69E00B
:1017100073E083E096E00E94E8360C94060942E00C
:1017200062E083E096E00E94752F68EF72E083E04C
:1017300096E00E94E8360C94FA0842E062E083E00A
:1017400096E00E94752F67EE72E083E096E00E94BB
:10175000E8360C94FA0842E062E083E096E00E94EA
:10176000752F66ED72E083E096E00E94E8360C94F7
:10177000120982E00E947D0862E370E083E00E942B
:10178000DE0343E061E083E096E00E94752F62ECA7
:1017900072E083E096E00E94E8366CED75E080E050
:1017A00090E00C947B35CF93DF93C82FD62F42E087
:1017B00062E083E096E00E94752FCA3030F460EC5E
:1017C00072E083E096E00E94E8364AE050E06C2F39
:1017D00083E096E00E94CC376CEB72E083E096E009
:1017E0000E94E836D11104C0DF91CF910C948C088F
:1017F00043E061E083E096E00E94752F69EA72E0C1
:1018000083E096E0DF91CF910C94E836CF93C62F1A
:1018100067E0680F42E083E096E00E94752F6C2F2E
:1018200083E096E0CF910C940D37CF93C82F82E0E0
:101830000E947D0863E270E082E00E94DE0343E0E4
:1018400061E083E096E00E94752F65E972E083E035
:1018500096E00E94E8366CED75E080E090E00E9432
:101860007B3543E061E083E096E00E94752F6EE8EF
:1018700072E083E096E00E94E836CA3030F46CE80B
:1018800072E083E096E00E94E8364AE050E06C2F78
:1018900083E096E00E94CC3761E872E083E096E056
:1018A0000E94E8366CED75E080E090E0CF910C94FA
:1018B0007B35CF93C82F42E061E083E096E00E9441
:1018C000752F61E772E083E096E00E94E836CA3047
:1018D00030F46FE672E083E096E00E94E8364AE07A
:1018E00050E06C2F83E096E00E94CC376DE672E00A
:1018F00083E096E00E94E836CF910C948C0882E059
:101900000E947D0863E270E085E00E94DE0343E010
:1019100061E083E096E00E94752F6AE572E083E063
:1019200096E00E94E8366CED75E080E090E00E9461
:101930007B3543E061E083E096E00E94752F66E42A
:1019400072E083E096E00E94E8366CED75E080E09E
:1019500090E00C947B35CF93C82F42E060E083E0A9
:1019600096E00E94752F64E372E083E096E00E94A7
:10197000E836CA3030F462E372E083E096E00E9419
:10198000E8364AE050E06C2F83E096E00E94CC37C6
:1019900081E00E940804CF910C948C0882E00E94A0
:1019A0007D0863E270E082E00E94DE0343E061E0D4
:1019B00083E096E00E94752F6FE172E083E096E08D
:1019C0000E94E8366CED75E080E090E00E947B3587
:1019D00043E061E083E096E00E94752F6CE072E0E6
:1019E00083E096E00E94E8366CED75E080E090E0E0
:1019F0000C947B3542E062E083E096E00E94752F14
:101A00006BEF71E083E096E00E94E8360C948C085E
:101A100082E00E947D0843E061E083E096E00E945E
:101A2000752F68EE71E083E096E00E94E8366CED79
:101A300075E080E090E00E947B356BE470E083E02D
:101A40000E94DE0343E061E083E096E00E94752F90
:101A500065ED71E083E096E00E94E8366CED75E09C
:101A600080E090E00C947B3582E00E947D086DE779
:101A700070E083E00E94DE0343E061E083E096E0F3
:101A80000E94752F62EC71E083E096E00E94E836D8
:101A90006CED75E080E090E00E947B3543E061E012
:101AA00083E096E00E94752F6FEA71E083E096E094
:101AB0000E94E83660ED77E080E090E00C947B35A2
:101AC00041E062E083E096E00E94752F6EE971E0EC
:101AD00083E096E00E94E8360C94120941E062E04F
:101AE00083E096E00E94752F67E671E083E096E060
:101AF0000E94E8360C948C0841E062E083E096E0B6
:101B00000E94752F66E571E083E096E00E94E8365A
:101B10000C948C0883E096E00E946E2F68EB7BE0CB
:101B200081E00E94DE0341E064E083E096E00E94F1
:101B3000752F60E171E083E096E00E94E83642E0B4
:101B400065E083E096E00E94752F65E071E083E038
:101B500096E00E94E83664EC79E080E090E00C9436
:101B60007B3541E064E083E096E00E94752F68EFEA
:101B700070E083E096E00C94E8360E94860841E02D
:101B800062E083E096E00E94752F67EE70E083E0EC
:101B900096E00E94E83643E06EE083E096E00E9423
:101BA000752F61EE70E083E096E00C94E836CF92FA
:101BB000DF92EF92FF920F936B017C0141E062E0B4
:101BC00083E096E00E94752F60ED70E083E096E080
:101BD0000E94E836ACE3B0E0A70196010E94453BC5
:101BE00002E022E046E00E94E5040F91FF90EF90B2
:101BF000DF90CF900C94FA08CF92DF92EF92FF9291
:101C00000F936B017C0141E062E083E096E00E946B
:101C1000752F6FEB70E083E096E00E94E83602E0FB
:101C200022E046E0C701B6010E94E5040F91FF9053
:101C3000EF90DF90CF90089582E00E947D0842E00F
:101C400063E083E096E00E94752F60EB70E083E034
:101C500096E00E94E83643E061E083E096E00E946F
:101C6000752F6DE970E083E096E00C94E836CF9232
:101C7000DF92EF92FF920F936B017C0141E062E0F3
:101C800083E096E00E94752F6CE870E083E096E0B8
:101C90000E94E836ACE3B0E0A70196010E94453B04
:101CA00002E022E046E00E94E5040F91FF90EF90F1
:101CB000DF90CF900C94FA088091CB05811103C07E
:101CC0004CE251E002C044E251E060E083E096E083
:101CD0000C945C308BE196E00E949C308BE196E0A6
:101CE0000C9497310F931F93CF9387E090E00E945D
:101CF000DA03C82F0E946A0E8091E105882349F11A
:101D00008BE196E00E940E318093B905882309F497
:101D100084C00E946A0E40E06EEB8BE196E00E9468
:101D200039310BEB15E08BE196E00E947B31F80135
:101D300081938F01F5E0043C1F07A9F768E08BEB66
:101D400095E00E94D0319091C305891761F00E94FF
:101D50006A0E40E064E48BE196E00E94393181E054
:101D60008093E1055AC06091BC0570E0762F66272C
:101D70008091BB05680F711D6C7F80E090E00E9430
:101D8000D93920E030E040E85DE30E948F3A60936B
:101D9000CD057093CE058093CF059093D00520910B
:101DA000CB052130A1F426E636E646EE5FE30E943D
:101DB0008F3A20E030E040E052E40E94D83860934F
:101DC000CD057093CE058093CF059093D0056C2FF1
:101DD00070E062537109882777FD8095982F0E94E3
:101DE000DB3920E030E040E251E40E9440399B01C1
:101DF000AC016091CD057091CE058091CF05909199
:101E0000D0050E94D8386093CD057093CE0580939D
:101E1000CF059093D0051092E105CF911F910F91BE
:101E200008958F929F92AF92BF92CF92DF92EF92DE
:101E3000FF920F931F93CF9383E090E00E94DA0309
:101E4000F82E82E090E00E94DA03B82E81E090E064
:101E50000E94DA03C82F2F2D30E0B90164567109B2
:101E6000882777FD8095982F0E94DB396B017C01D4
:101E70006B2D70E080E090E00E94DB3920E030E0E4
:101E800048EC52E40E94D73820E030E04AE753E4BF
:101E90000E9440394B015C016C2F70E0645671095F
:101EA000882777FD8095982F0E94DB39AB01BC0114
:101EB000950184018AE795E00E94FC3285E090E07C
:101EC0000E94DA038093EE0584E090E00E94DA033A
:101ED0009AEF899FB00111248AE795E0CF911F9175
:101EE0000F91FF90EF90DF90CF90BF90AF909F90B9
:101EF0008F900C94AF330E944C356093F305709330
:101F0000F4058093F5059093F6051092BA050895AF
:101F1000FF920F931F93CF93DF93D82FF62EC42FEA
:101F20000E944C350091F3051091F4052091F505C0
:101F30003091F605601B710B820B930B693E734069
:101F40008105910508F468C00E944C356093F30543
:101F50007093F4058093F5059093F6058091BA058A
:101F60008F5F8093BA05F11003C01092BA0528C0A4
:101F70000091FF05109100062091010630910206A4
:101F800001501109210931090093FF051093000642
:101F900020930106309302060091FB051091FC0589
:101FA0002091FD053091FE050F5F1F4F2F4F3F4FD2
:101FB0000093FB051093FC052093FD053093FE056F
:101FC000C23029F48091DA0581111092BA0580910E
:101FD000BA058C3308F11092BA05D11103C01092E2
:101FE000C40505C08091C4058F5F8093C4056091CE
:101FF000C7057091C805615071097093C805609359
:10200000C705C11109C086E590E0DF91CF911F910E
:102010000F91FF900C94DC03DF91CF911F910F91F2
:10202000FF90089588E490E00E94DA038093B5055C
:102030009091B605981708F048C08091C60590E0C9
:102040002091C7053091C80528173907F1F56AEFC7
:1020500070E084E00E94DE038091B6050E94710961
:102060008091FF05909100060E9498088091FF05DD
:1020700090910006A0910106B09102060697A10575
:10208000B10528F466E970E081E00E94DE0364ECAB
:1020900079E080E090E00E947B356EEE72E081E0B6
:1020A0000E94DE036091B6056F5F6093B60587E519
:1020B00090E00E94DC038091B7058F5F8093B705A5
:1020C00090E00E94DA038093C60508950F931F9352
:1020D000CF93DF93EC01062F888190E0875A9F4FC2
:1020E0000E94DA0381111AC08881013021F48A30FC
:1020F00050F48F5F05C0023021F4823020F081500F
:10210000888311E001C010E0888190E0875A9F4FDA
:102110000E94DA03813011F01111E6CF80E0DF91E7
:10212000CF911F910F9108955F926F927F928F923E
:102130009F92AF92BF92CF92DF92EF92FF920F9356
:102140001F93CF93DF931F92CDB7DEB719820AE5B5
:1021500010E0812C912CC8010E94DA03813031F407
:1021600087EA982E900E811001C0892C0F5F1F4FB7
:102170000436110581F7911003C00E94B90B8FC07E
:10218000A9E5DA2ED80C77247394A92CB12C89E513
:10219000A80EB11CBAE06B2E14E3512E8D2D90E0E9
:1021A000A816B9060CF47BC087EA8D0D89837720C9
:1021B00009F473C060E089810E94D30B6FEE75E073
:1021C00083EB95E00E948605E090EF05F090F00526
:1021D0000091F1051091F205C090B30521E0482D62
:1021E000692DCE0101960E94E0070CE612E02981DC
:1021F00030E021503109629EC001639E900D112490
:10220000800F911F0E94DA03682F84E9800F0E94DB
:10221000060C0F5F1F4F063782E0180741F76091E9
:10222000B305CE0101960E94661062E370E08FE074
:102230000E946505882339F00E94BF090E94700B37
:10224000F4E6DF2E712C62E370E08EE00E946505FB
:10225000882309F4ACCF0E94860889810E94150C5E
:10226000898190E00197589E7001599EF00C1124CD
:1022700084E6E80EF11C0EE110E0C7010E94DA03CB
:10228000682FC8010E94DC038FEFE81AF80A0F5F7D
:102290001F4F0235110589F7712CD3947FCF0F9012
:1022A000DF91CF911F910F91FF90EF90DF90CF9032
:1022B000BF90AF909F908F907F906F905F900895A8
:1022C0008F929F92AF92BF92CF92DF92EF92FF9246
:1022D0000F931F93CF93DF9300D0CDB7DEB7198252
:1022E0000AE510E0912CD12CC8010E94DA0381305C
:1022F00031F497EAD92ED00E911001C09D2C0F5FBA
:102300001F4F0436110581F7D11003C00E94B90B8D
:102310005CC039E5390D88248394AD2CB12C89E556
:10232000A80EB11C832F90E0A816B9060CF44DC07E
:1023300087EA830F8983882009F445C089813A831D
:102340000E94AB0C6FEE75E083EB95E00E94860572
:10235000E090EF05F090F0050091F1051091F20585
:10236000C090B30521E0492D6D2DCE0101960E944C
:10237000E0076091B305CE0101960E94661062E30A
:1023800070E08FE00E9465053A81882331F00E9459
:10239000BF090E94700B34E6812C62E370E08EE08E
:1023A0003A830E9465053A81882329F289810E9437
:1023B000CE0C898190E060E0875A9F4F0E94DC0339
:1023C000812C34E6B8CF3F5FADCF0F900F90DF91F7
:1023D000CF911F910F91FF90EF90DF90CF90BF9022
:1023E000AF909F908F900895AF92BF92CF92DF925F
:1023F000EF92FF920F931F9367E08BE196E00E94AC
:10240000AD3125E0C22E34E0E32E03E022E043E1CB
:1024100062E183E096E00E942D308AE090E00E9425
:10242000DA038093CB058BE090E00E94DA0380937F
:10243000CA0580E090E00E94DA038093C9051F92EC
:102440001F921F921F921F921F92A12CB12C40E24B
:10245000C42E42E4D42EE12CF12C08EC12E42AEE36
:1024600035E042EE55E066EE75E08AE795E00E94C1
:1024700095340F900F900F900F900F900F901F9129
:102480000F91FF90EF90DF90CF90BF90AF900895A5
:10249000CF92DF92EF92FF920F931F93CF93DF9330
:1024A000CDB7DEB7E0970FB6F894DEBF0FBECDBF55
:1024B000082FE62E88E0E9EAF2E0DE019996019025
:1024C0000D928A95E1F788E0E1EBF2E0DE0191966A
:1024D00001900D928A95E1F788E0E9EBF2E0DE01E8
:1024E000599601900D928A95E1F788E0E1ECF2E0CF
:1024F000DE01519601900D928A95E1F788E0E9ECB2
:10250000F2E0DE01199601900D928A95E1F788E0DC
:10251000E1EDF2E0DE01119601900D928A95E1F76E
:10252000AE01475D5F4F61E083E096E00E945C3062
:10253000AE014F5D5F4F62E083E096E00E945C3049
:10254000AE01475E5F4F63E083E096E00E945C303F
:10255000AE014F5E5F4F64E083E096E00E945C3026
:10256000AE01475F5F4F65E083E096E00E945C301C
:10257000AE014F5F5F4F66E083E096E00E945C3003
:1025800083E096E00E946E2FFE2C11E0CC24C394D1
:10259000C00E64E0D62ED00E4F2D602F83E096E063
:1025A0000E94752F612F83E096E00E9496304F2D98
:1025B0006C2D83E096E00E94752F61E0610F83E04F
:1025C00096E00E9496301E5F4F2D6D2D83E096E0C1
:1025D0000E94752F65E083E096E00E94963066E0E9
:1025E00083E096E00E949630F3941530A9F6E394C8
:1025F00020E030E04BED52E06E2D82E0800F0E9433
:10260000610824E931E14EED52E06E2D86E0800F45
:102610000E946108E0960FB6F894DEBF0FBECDBFF2
:10262000DF91CF911F910F91FF90EF90DF90CF90AE
:10263000089561E086E00C944812CF92DF92EF9209
:10264000FF920F9369017A01643030F4462F682FAE
:1026500083E096E00E94752F4FEF5FEFC701B60150
:102660000E941904202F30E0B701A60183E096E014
:102670000E94BE3860E083E096E00F91FF90EF90FB
:10268000DF90CF900C9496300F939B01AC0102E049
:1026900061E081E00E941D130F9108958F929F9237
:1026A000AF92BF92CF92DF92EF92FF920F936B01A6
:1026B0007C0149015A01013061F440E060E083E0AF
:1026C00096E00E94752F69E474E083E096E00E9432
:1026D000E83602E0A501940161E081E00E941D134B
:1026E00042E061E083E096E00E94752F64E474E0CC
:1026F00083E096E00E94E8364FEF5FEFC701B60136
:102700000E94190420E030E0B701A60183E096E0C2
:102710000E94BE3861E474E083E096E00F91FF9080
:10272000EF90DF90CF90BF90AF909F908F900C94E0
:10273000E8360F939B01AC0102E062E08CE00E945E
:102740001D130F910895CF92DF92EF92FF920F9396
:10275000CF93DF936B017C01EA010E94B20841E054
:1027600061E083E096E00E94752F6BE871E083E002
:1027700096E00E94E83602E0A701960160E087E05B
:102780000E941D13CE010E94A50843E061E083E092
:1027900096E00E94752F68E771E083E096E0DF9194
:1027A000CF910F91FF90EF90DF90CF900C94E8368F
:1027B0000F93CF93DF93EA0102E09B01AC0161E04C
:1027C00081E00E941D13CE010E94980843E061E061
:1027D00083E096E00E94752F63E471E083E096E069
:1027E000DF91CF910F910C94E836CF92DF92EF9268
:1027F000FF920F93CF93DF936B017C01EA010E945C
:10280000B20841E061E083E096E00E94752F60E34A
:1028100071E083E096E00E94E83602E0A7019601AD
:1028200060E087E00E941D13CE010E94A50843E0EE
:1028300061E083E096E00E94752F6DE171E083E036
:1028400096E0DF91CF910F91FF90EF90DF90CF90C6
:102850000C94E836462F682F83E096E00E94752F8F
:1028600066EF75E083E096E00E94E83667E083E07B
:1028700096E00C94963040E060E083E096E00E94A1
:10288000752F6AEE75E083E096E00E94E83661E01D
:1028900083E096E00E94963060E08CE00C942A146D
:1028A0000F93CF93DF9300D000D0CDB7DEB79B015D
:1028B000AC0169833A834B835C830E943B1402E042
:1028C00029813A814B815C8161E086E00E941D1381
:1028D00082E00E947D0843E061E083E096E00E9490
:1028E000752F63EC75E083E096E00F900F900F90EA
:1028F0000F90DF91CF910F910C94E83683E096E032
:102900000E946E2F0E943B146CED75E080E090E019
:102910000E947B352EEE32E041EE52E062E086E02E
:102920000E94610820ED37E04AEE52E063E085E066
:102930000E94610826ED36E045EF52E063E085E055
:102940000E94610826ED36E040E053E063E086E057
:102950000E9461080E9486082EEE32E049E053E0B2
:1029600062E083E00E94610827EE33E048E153E033
:1029700063E083E00E94610827EE33E047E253E022
:1029800063E083E00E94610827EE33E046E353E012
:1029900063E083E00E94610827EE33E045E453E002
:1029A00063E084E00E94610827EE33E042E553E0F3
:1029B00063E084E00E9461080E9486082EEE32E007
:1029C0004FE553E062E084E00E94610827EE33E0C7
:1029D0004BE653E063E084E00E94610827EE33E0B9
:1029E00047E753E063E084E00E94610827EE33E0AC
:1029F00043E853E063E084E00E94610827EE33E09F
:102A00004FE853E063E083E00E94610827EE33E083
:102A10004DE953E063E083E00E94610827EE33E074
:102A20004BEA53E063E083E00E9461080C9486085F
:102A3000CF92DF92EF92FF920F936B017C0102E045
:102A400061E081E00E941D1341E06CE083E096E0CC
:102A50000E94752F20E030E048EC52E4C701B60137
:102A60000E943C3987FF03C081E00E94080422E0F5
:102A700030E0B701A60183E096E00E94BE3862E034
:102A800083E096E00E94963043E061E083E096E0C8
:102A90000E94752F64E275E083E096E00F91FF904D
:102AA000EF90DF90CF900C94E8368F929F92AF9288
:102AB000BF92CF92DF92EF92FF920F931F93CF932B
:102AC000C82F6A017B014801590140E060E083E0C2
:102AD00096E00E94752F63EF74E083E096E00E9419
:102AE000E836CB3048F4EC2FF0E0EE0FFF1FEF5745
:102AF000FD4F6081718104C06091950270919602D2
:102B000083E096E00E940B3702E0A501940161E0AA
:102B100081E00E941D1341E068E083E096E00E949E
:102B2000752F84E00E94080420E030E048EC52E475
:102B3000C701B6010E943C3987FF03C081E00E94B3
:102B4000080422E030E0B701A60183E096E00E948D
:102B5000BE3862E083E096E00E94963043E061E098
:102B600083E096E00E94752FC11106C060EE74E00C
:102B700083E096E00E94E8368FEF8C0F873038F4C0
:102B80006DEC74E083E096E00E94E8360AC0C8303D
:102B900019F46AEB74E00EC0C93019F467EA74E006
:102BA00009C0CA3019F464E974E004C0CB3089F478
:102BB00061E874E083E096E0CF911F910F91FF9060
:102BC000EF90DF90CF90BF90AF909F908F900C943C
:102BD000E836CF911F910F91FF90EF90DF90CF904B
:102BE000BF90AF909F908F9008950F93CF93DF93F6
:102BF000C82FD62F42E06CE083E096E00E94752F4C
:102C00008D2F90E08231910508F04DC0FC01EC5C05
:102C1000FF4F0C94383B86E00E94080460E083E09C
:102C200096E0DF91CF910F910C949630C11103C0C3
:102C300068EB73E082C060EB73E07FC083E00E94CA
:102C400008046C2F70E080E090E00E94D9399B016D
:102C5000AC0100E069E089E00E941D1375C084E0CA
:102C60000E9408046C2F70E080E090E00E94D93947
:102C70004EEF5FEF0E9419044AE050E06C2F83E0B2
:102C800096E00E94CC376EEA73E057C085E00E9460
:102C900008044AE050E06C2F83E096E00E94CC37B5
:102CA0006CEA73E04AC084E00E940804C11103C0CA
:102CB00068EA73E042C0C13009F046C064EA73E0DC
:102CC0003CC0C11103C06CE973E037C064E973E034
:102CD00034C085E00E940804C11103C061E973E0BB
:102CE0002CC0C13089F56EE873E027C0C11109C05E
:102CF00042E06CE083E096E00E94752F66E873E0A6
:102D00001CC08CE3C89FB0011124882777FD8095F3
:102D1000982F01E022E04CE00E94E50415C0C111AB
:102D200003C06EE773E009C0C13019F466E773E0D1
:102D300004C0C23049F46EE673E083E096E0DF91B0
:102D4000CF910F910C94E836DF91CF910F910895B8
:102D500042E060E083E096E00E94752F66E083E049
:102D600096E00C94963061E089E00E944B360C941A
:102D7000A816CF93C82F42E060E083E096E00E945F
:102D8000752FCC2331F065E083E096E0CF910C9471
:102D9000963081E0CF910C940804CF93C82F60E067
:102DA00089E00E944B368C2FCF910C94B9164F922C
:102DB0005F926F927F928F929F92AF92BF92CF92CB
:102DC000DF92EF92FF92CF93DF9300D000D0CDB788
:102DD000DEB7782E8091C905813029F588E090E032
:102DE0000E94DA036AE00E94F63A682F70E080E001
:102DF00090E00E94DB396B017C012091E605309167
:102E0000E7054091E8055091E9050E9440394B01E2
:102E10005C0160E47FE18AE795E00E94AF3380EADD
:102E20008093EE0532C08091CB05811107C0C12C83
:102E3000D12CF0E6EF2EF0E4FF2E08C0EAE9CE2E0A
:102E4000E9E9DE2EE9ECEE2EE0E4FE2EA701960184
:102E50006091D1057091D2058091D3059091D405F0
:102E60000E94D7389B01AC016091E6057091E7059F
:102E70008091E8059091E9050E948B3A812C912C74
:102E8000540187FD02C0750164012091E60530916F
:102E9000E7054091E8055091E905C501B4010E949C
:102EA000D8389B01AC016091EA057091EB058091E7
:102EB000EC059091ED050E94D738A70196010E947C
:102EC000403969837A838B839C830E944C354B0104
:102ED0005C01772009F461C020E030E040E85FE366
:102EE00069817A818B819C810E943C3987FF49C02E
:102EF0008091C905813009F03FC0CE0101960E9442
:102F0000CC0520E030E04FE753E40E948F3A609315
:102F1000E2057093E3058093E4059093E505C9808D
:102F2000DA80EB80FC802DEC3CEC4CE45EE3C701E6
:102F3000B6010E943C3987FF0CC080E090E0A0E21F
:102F4000B2E48093E2059093E305A093E405B09387
:102F5000E5052DEC3CEC4CEC5DE3C701B6010E94AD
:102F60003C3987FF1AC01092E2051092E3051092D7
:102F7000E4051092E50511C08AE795E00E94DC3176
:102F80000CC080E090E0AFE7B3E48093E20590935B
:102F9000E305A093E405B093E505C090EA05D09061
:102FA000EB05E090EC05F090ED05A701960160912E
:102FB000E6057091E7058091E8059091E9050E948A
:102FC0008B3A87FD26C02091D1053091D2054091E2
:102FD000D3055091D405C701B6010E948B3A87FDF5
:102FE00018C08091B4052FEF829FC001112464E6C0
:102FF00070E00E94023B882777FD8095982F0E9401
:10300000DB396093E2057093E3058093E4059093C8
:10301000E5058091F7059091F805A091F905B0912B
:10302000FA05C090EE053AEFC39E60011124E12C31
:10303000F12CB501A401481B590B6A0B7B0BC4167C
:10304000D506E606F70660F48C0D9D1DAE1DBF1D6E
:103050008093F7059093F805A093F905B093FA05CE
:1030600020E030E04FE753E46091E2057091E30522
:103070008091E4059091E5050E9440392B013C01C7
:10308000C701B6010E94D9399B01AC01C301B2014D
:103090000E948F3A6B017C018091F7059091F805B1
:1030A000A091F905B091FA05A5019401281B390BEF
:1030B0004A0B5B0BCA01B9010E94D9399B01AC01D3
:1030C000C701B6010E948B3A181634F481E0809350
:1030D000DF050E94B31604C08091DF050E94CD1663
:1030E0000F900F900F900F90DF91CF91FF90EF9086
:1030F000DF90CF90BF90AF909F908F907F906F9018
:103100005F904F9008950F931F93CF93DF93D82F25
:10311000162F042F6EEE72E081E00E94DE03C0E005
:103120000E94720E6091CD057091CE058091CF0501
:103130009091D0056093E6057093E7058093E805CC
:103140009093E905013011F40E944413D13021F429
:103150008091CA05813029F48091DF050E94CD1647
:1031600003C081E00E94D71662E370E08EE00E9407
:103170006505811114C0123041F462E370E08FE004
:103180000E946505882349F00CC0CF3F31F469E106
:1031900070E082E00E94DE03C0E0CF5FC1CF81E03B
:1031A00001C080E0DF91CF911F910F9108953F9270
:1031B0004F925F926F927F928F929F92AF92BF9247
:1031C000CF92DF92EF92FF920F931F93CF93DF93F3
:1031D000CDB7DEB72A970FB6F894DEBF0FBECDBFCE
:1031E0001AE5712C812F90E00E94DA03811104C04E
:1031F00027EA722E710E13E61F5F143699F77110CD
:1032000003C00E94340D11C181E689830E948608A3
:1032100061E0872D0E94D30BD12C10E2612E00E3D8
:10322000402E81E6582E99E3392EAD2CB12C8824FE
:103230008394912C8C0E9D1E8A0C9B1CF401608142
:103240008D2D0E94060C83E096E00E9454306FEEB4
:1032500075E083EB95E00E948605E090EF05F09025
:10326000F0050091F1051091F205C090B30521E041
:1032700040E26AE7C4010E94E007F40180818152C4
:103280008F3028F48091B305813009F44082E1E069
:10329000F0E0EC0FFD1FEA0DFB1D80818A538732A1
:1032A00028F48091B305813009F45082E1E0F0E028
:1032B000EC0FFD1FEA0DFB1D80818A53873228F435
:1032C0008091B305823009F43082E1E0F0E0EC0F48
:1032D000FD1FEA0DFB1D8081803328F48091B3052A
:1032E000823009F4608262E370E08FE00E9465053D
:1032F000882341F0D394E1E0F0E0EC0FFD1FED0DE9
:10330000F11D508281E10E948136892BB1F480E168
:103310000E948136892B89F46EE571E080E090E0AF
:103320000E947B3581E10E948136892B31F480E156
:103330000E948136892B09F469C062E370E08EE057
:103340000E946505882321F0DD2009F46ECFDA9410
:1033500089E08D1508F069CF83E096E00E944D303A
:10336000872D0E94590C40E062E080E00E948318A3
:10337000811105C00E94BF090E94700B56C00E94B7
:103380007F0CA72CB12C450191E0891A910884E3A8
:10339000889D7001899DF00C1124E4E6EE0EF11C6D
:1033A0000EE110E0C8010E94DA03682FC7010E94F5
:1033B000DC03FFEFEF1AFF0A0F5F1F4F0235110505
:1033C00089F78AE0889D7001899DF00C11248E0197
:1033D0000F5F1F4F4E018BE0880E911CE01AF10A1F
:1033E000F701E559FD4F7F01F80161918F01C70198
:1033F0008E0F9F1F0E94DC0308151905A9F761E0D5
:10340000C501875A9F4F0E94DC030FC0F9E0FD15EC
:1034100048F0E1E0F0E0EC0FFD1FED0DF11D6082E2
:10342000D394F4CFA9E0DA2E88CF2A960FB6F89479
:10343000DEBF0FBECDBFDF91CF911F910F91FF90E7
:10344000EF90DF90CF90BF90AF909F908F907F9044
:103450006F905F904F903F900895CF93DF930E94BD
:10346000FA0C40E062E080E00E948318811106C0FF
:103470000E94BF09DF91CF910C94700B0E94080D40
:10348000CAE5D0E060E0CE010E94DC032196C4369C
:10349000D105C1F7DF91CF9108951F93CF93DF93AB
:1034A000C0E0C13031F138F0C23009F44AC0C33055
:1034B00009F469C0F6CF0E94810B62E370E08EE0F0
:1034C0000E946505D1E08111D0E062E370E081E106
:1034D0000E946505C1E0811101C0C0E062E370E0B7
:1034E0008FE00E946505882309F466C00E9494104D
:1034F00063C00E948F0B62E370E08EE00E9465055E
:10350000D1E08111D0E062E370E080E10E946505C6
:10351000182F62E370E081E10E946505811105C00A
:10352000C1E0112319F0C0E001C0C2E062E370E025
:103530008FE00E946505882309F43EC00E94D718D9
:103540003BC00E949D0B62E370E08EE00E94650527
:10355000D1E08111D0E062E370E080E10E94650576
:103560008111C1E062E370E081E10E946505811193
:10357000C3E062E370E08FE00E9465058823E1F01C
:103580000E94601119C00E94AB0B62E370E08EE0F4
:103590000E946505D1E08111D0E062E370E080E136
:1035A0000E9465058111C2E062E370E08FE00E9435
:1035B000650581110E942D1AD11173CFDF91CF9132
:1035C0001F910C94700B62E370E08EE00E94650521
:1035D0008823B9F08091DF0581110EC081E08093CE
:1035E000DF050E944C356093F7057093F8058093D2
:1035F000F9059093FA0508951092DF0580E00C9488
:10360000CD16089542E063E183E096E00E94752FB5
:1036100064E083E096E00C94963061E086E00E94DE
:103620004B360C94021BCF93C82F42E063E183E03A
:1036300096E00E94752FCC2331F063E083E096E0A2
:10364000CF910C94963081E0CF910C940804CF93E5
:10365000C82F60E086E00E944B368C2FCF910C94EF
:10366000131B8091DF050E94CD168091E0050C941C
:10367000271B6AEF70E08EE00E946505882359F1F0
:1036800064E670E083E00E94DE030E94311B0E942A
:10369000720E4091FF05509100066091CD0570912A
:1036A000CE058091CF059091D0050E94A3136BE4C5
:1036B00070E080E090E00E947B356AEF70E08EE081
:1036C0000E946505882319F364E670E083E00E9498
:1036D000DE030C942E090895CF93DF93EC0181E172
:1036E0000E948136892B01F580E10E948136892B69
:1036F000D9F46EE571E080E090E00E947B3581E1D5
:103700000E948136892B81F480E10E948136892BC9
:1037100059F41092DF051092E0050E94311B1882C7
:10372000DF91CF910C948608DF91CF910895CF92CD
:10373000EF92FF920F931F93CF93DF931F92CDB71A
:10374000DEB781E089831092FF0510920006109287
:103750000106109202068981882399F16091C705BC
:103760007091C805882777FD8095982F0E94D70D06
:103770006FEE75E083EB95E00E948605E090EF0523
:10378000F090F0050091F1051091F205C090B3059D
:1037900025E030E045E050E060EA75E087EC95E038
:1037A0000E947E0662E370E08FE00E946505811151
:1037B000198262E370E08EE00E946505882359F269
:1037C00045C00E948C0840E062E080E00E948318BF
:1037D00089830E94860889818823C1F1A091C70549
:1037E000B091C8052CE330E00E943E3B6093FF059A
:1037F0007093000680930106909302060E947B0F4F
:103800008091C7059091C80518161906BCF46091FF
:10381000FF057091000680910106909102060E94BA
:10382000FC0D41E061E080E00E94880FCE0101962E
:103830000E946C1B89818111E3CF08C06AEF70E0A0
:1038400085E00E94DE030E94860804C01092C50530
:103850001092DE050F90DF91CF911F910F91FF9095
:10386000EF90CF900895AF92BF92CF92DF92EF92F8
:10387000FF920F931F93CF93DF9300D0CDB7DEB7A6
:103880001A82A12CBB24B3948A2D90E00E94DA0303
:10389000898388E0A81205C08091C905882309F4AE
:1038A0004BC0BA828A81882309F455C08A2D0E94B0
:1038B000E0096FEE75E083EB95E00E948605898153
:1038C0006A2D90E00E94F00983E0A89E6001112417
:1038D00085E0A81233C084E090E00E94DA0342E061
:1038E000480FE090EF05F090F0050091F105109180
:1038F000F205F601E659FE4FC090B30522816081C2
:10390000CE0101960E94E007CE0102960E946C1B38
:103910008A81811102C049E0A42E62E370E08FE049
:103920000E946505882309F4BDCF69818A2D90E046
:103930000E94DC03AA2039F01A82B4CFF601E659BE
:10394000FE4F4181CECF89818093C9058130A1F797
:1039500035E0A32EF1CFA39488E08A1508F094CF28
:103960000E9486080F900F90DF91CF911F910F91C9
:10397000FF90EF90DF90CF90BF90AF9008952F927F
:103980003F924F925F926F927F928F929F92AF92EF
:10399000BF92CF92DF92EF92FF920F931F93CF933C
:1039A000DF9300D0CDB7DEB71982FAE0DF2E3324E3
:1039B00033940D2D10E080EF8D0D873030F4809121
:1039C000CA05813051F419820CC02AE1D21205C017
:1039D00089E190E00E94DA03F4CF3982FCE0DF163F
:1039E00019F034E1D31204C08091CB05811102C0DB
:1039F000C80102C0C80101960E94DA038A83AD2C77
:103A0000B12C95012A503109C901880F991F820FE5
:103A1000931F66EF262E2D0CFC01EA5CFE4F4F0132
:103A20009C012B5C3E4F3901FC01EC5CFE4F2F01E9
:103A30008981882381F1822D0E94960A8AE0D8121A
:103A400005C08A818093CB050E945C0E622D8A811D
:103A50000E94F5156FEE75E083EB95E00E948605F8
:103A6000E090EF05F090F0050091F1051091F2055E
:103A7000C090B305F4012081F3014081F20160811F
:103A8000CE0102960E94E007CE0101960E946C1BB7
:103A9000898181111CC0D394FBE1FD1508F089CF09
:103AA0000E9486080F900F90DF91CF911F910F9188
:103AB000FF90EF90DF90CF90BF90AF909F908F904E
:103AC0007F906F905F904F903F902F90089562E3AA
:103AD00070E08FE00E946505882309F4A9CF2CE0EF
:103AE000D21609F453C034E1D31609F44FC06A81E9
:103AF000C5010E94DC038AE0D81206C08A81809347
:103B0000CB050E945C0E8CC0EBE0DE1204C08A8103
:103B10008093CA0585C0FFE0DF1222C08091CA05EC
:103B2000813009F07DC000E110E061E0C8010E9431
:103B3000DC030F5F1F4F04311105B9F76EE684E116
:103B400090E00E94DC0366EE85E190E00E94DC03D9
:103B500061E086E190E00E94DC03E6E1DE2E60C0D9
:103B600023E1D2125DC083E190E00E94DA0381116B
:103B700057C060E584E190E00E94DC0360EB85E1E2
:103B800090E00E94DC0375E1D72E4AC08091CB05FE
:103B900085010F5F1F4F6A81811118C0C5010E9406
:103BA000DC036A8170E080E090E00E94DB3926E669
:103BB00036E646EE5FE30E948F3A20E030E040E0D8
:103BC00052E40E94D8380E94AD3915C070E06052AE
:103BD0007109882777FD8095982F0E94DB3926E6AA
:103BE00036E646EE5FE30E9440390E94AD39C501DA
:103BF0000E94DC036A81C8010E94DC033CE0D3120E
:103C00000EC06A8170E080E090E00E94D939609334
:103C1000D1057093D2058093D3059093D405D394A6
:103C20001982EDCEAF92BF92CF92DF92EF92FF92C8
:103C30000F931F93CF93DF9300D01F92CDB7DEB7C2
:103C400088E490E00E94DA038093B50589E48093CC
:103C5000B70581E08A838A818823A1F10E94F40A52
:103C60008091B5050E94020B6FEE75E083EB95E045
:103C70000E948605E090EF05F090F0050091F105B7
:103C80001091F205C090B30521E040E06AE085EBB9
:103C900095E00E94E007CE0102960E946C1B8A818B
:103CA000882309F48EC062E370E08FE00E9465050E
:103CB000882389F26091B50588E490E00E94DC03D6
:103CC0001A82C9CF8091B5058F5F8093B505D12C3D
:103CD000AA24A3941091B505D11608F061C0AA8258
:103CE0008091B70590E00E94DA0389838A81882356
:103CF00009F44FC0D11003C00E94170B03C08D2DD3
:103D00000E94250B898190E00E944D0BCE01029606
:103D10000E946C1B8A81882309F453C0DD2061F066
:103D20008091B70590E001970E94DA03B82E81E0F8
:103D3000D81631F0BA9404C04EE1A4EBBA2E01C0FB
:103D400040E06FEE75E083EB95E04B830E948605C3
:103D5000E090EF05F090F0050091F1051091F2056B
:103D6000C090B30521E04B816B2DCE0101960E94DE
:103D7000E00762E370E08FE00E946505882309F4A4
:103D8000B5CF8091B705698190E00E94DC031A826B
:103D9000ADCF8091B7058F5F8093B705D3949ACF4D
:103DA0001B3068F48091B70560E090E00E94DC036E
:103DB0008091B7058F5F8093B7051F5FF1CF0E9499
:103DC00086080F900F900F90DF91CF911F910F9168
:103DD000FF90EF90DF90CF90BF90AF9008952F921B
:103DE0003F924F925F926F927F928F929F92AF928B
:103DF000BF92CF92DF92EF92FF920F931F93CF93D8
:103E0000DF93CDB7DEB76D970FB6F894DEBF0FBE68
:103E1000CDBF80E28093B80585EE91E09A878987CF
:103E2000A5E8B1E0B887AF83712C198E1A8E1B8E6E
:103E30001C8EB1E0BC8B1C861D861E861F8681E011
:103E40008E839091CB058091B805911139C090E097
:103E50000E94990469837A838B839C83772081F005
:103E60008091B80590E005970E94990420E030E029
:103E700040E85DE30E948F3A6C877D878E879F873D
:103E8000A985BA858D919D910D90BC91A02D888BAF
:103E9000998BAA8BBB8BE985FA8554804580368047
:103EA000278080859185A285B3858D8B9E8BAF8B76
:103EB000B88FC12CD12C10E6E12E10E4F12E3BC0BE
:103EC00090E002960E94990469837A838B839C8395
:103ED000772081F08091B80590E003970E949904C3
:103EE00020E030E040E85DE30E948F3A6C877D87F8
:103EF0008E879F87AF81B8858D919D910D90BC91E4
:103F0000A02D888B998BAA8BBB8BEF81F885548071
:103F100045803680278080859185A285B3858D8BED
:103F20009E8BAF8BB88FBAE9CB2EB9E9DB2EB9ECFB
:103F3000EB2EB0E4FB2EBC89B11103C0C12CD12CF7
:103F4000760120E030E040E85DE369817A818B8191
:103F50009C810E948F3A69837A838B839C8377202C
:103F600009F491C0A70196016C857D858E859F859A
:103F70000E94D7389B01AC01688979898A899B891D
:103F80000E943C3987FF57C08AEF870D823008F4C2
:103F90007DC020E030E040E851E46C857D858E8571
:103FA0009F850E948F3A69837A838B839C830E94CA
:103FB000AD39CB010E94C038BC019091CB058091F6
:103FC000B805911117C090E00E94D504CE0101966A
:103FD0000E941C0669817A818B819C810E94AD3987
:103FE000CB010E94C0382091B80530E0BC01C90166
:103FF000029615C090E002960E94D504CE0101966B
:104000000E944D0669817A818B819C810E94AD3925
:10401000CB010E94C038BC018091B80590E00E949D
:10402000D5048091B80590E060E004960E94DC031E
:104030001E821B863BC0EC89EE23B1F0A7019601DE
:10404000698D7A8D8B8D9C8D0E94D738F62E672EC8
:104050008C01252D342D432D522D0E948B3A87FF44
:1040600018C0F1E0FB8722C02C853D854E855F8519
:10407000652D742D832D922D0E943C3987FD10C033
:1040800081E08B8713C091E09B8710C0A1E0AB87D4
:104090000DC05F2C462C302E212EB1E0BB8706C010
:1040A0005C844D843E842F84E1E0EB87FAEFF70DCA
:1040B000FD8F8E81882309F4D2C0872D0E94B40A17
:1040C00069817A818B819C810E949913CE01069629
:1040D0000E946C1B8E81882309F429C162E370E081
:1040E0008EE00E946505882331F18091CB05811116
:1040F00003C0E985FA8502C0EF81F8858481958146
:10410000A681B78189839A83AB83BC8329813A8155
:104110004B815C81652D742D832D922D0E948B3AED
:1041200018165CF4852D942DA32DB22D89839A83C6
:10413000AB83BC8302C0612C02C0662463946FEE23
:1041400075E083EB95E00E9486058090EF059090E6
:10415000F005A090F105B090F2058091B3058F9322
:10416000CD88DE88EF88F88C052D142D232D322D77
:10417000488959896A897B89CE0101960E94050781
:104180000F90772029F0FD8DF23010F0611013C0F0
:1041900062E370E08FE00E946505882309F489CF0F
:1041A000711008C089819A81AB81BC81898F9A8FF7
:1041B000AB8FBC8F612C20E030E040E851E4698196
:1041C0007A818B819C810E948F3A69837A838B8369
:1041D0009C830E94AD39CB010E94C038BC019091F4
:1041E000CB058091B805911117C090E00E94D504CD
:1041F000CE0101960E941C0669817A818B819C8187
:104200000E94AD39CB010E94C0382091B80530E042
:10421000BC01C901029615C090E002960E94D50427
:10422000CE0101960E944D0669817A818B819C8125
:104230000E94AD39CB010E94C038BC018091B80505
:1042400090E00E94D504662041F08091B80590E08E
:1042500060E004960E94DC031B861E822ACF9B85A9
:10426000992311F081E08E838091B80590E0049647
:104270000E94DA038D838E81882309F441C0772060
:10428000B1F18D8190E00E94CF0ACE0106960E9486
:104290006C1B8E81882309F44AC06FEE75E083EBB6
:1042A00095E00E948605E090EF05F090F005009102
:1042B000F1051091F205C090B30521E041E06CE8F2
:1042C000CE0105960E94E00762E370E08FE00E9455
:1042D0006505882381F26D81662369F28091B805B6
:1042E00090E004960E94DC031E821C8AC4CF809159
:1042F000B80590E065E004960E94DC031E82BBCF07
:104300008091B8058B5F8093B8057394A985BA85B1
:104310001C96BA87A987EF81F8853C96F887EF83CA
:10432000F8E07F128CCD0E94121E0E9486086D96C6
:104330000FB6F894DEBF0FBECDBFDF91CF911F91B6
:104340000F91FF90EF90DF90CF90BF90AF909F9034
:104350008F907F906F905F904F903F902F90089537
:104360001F93CF93DF93C0E0C23009F453C028F409
:10437000CC2351F0C13031F1F7CFC33009F46DC017
:10438000C43009F48CC0F0CF0E94CF0962E370E022
:104390008EE00E946505D1E08111D0E062E370E01B
:1043A00081E10E946505C1E0811101C0C0E062E3C6
:1043B00070E08FE00E946505882309F489C00E949F
:1043C000331C86C00E94850A62E370E08EE00E9482
:1043D0006505D1E08111D0E062E370E080E10E94E8
:1043E0006505182F62E370E081E10E946505811187
:1043F00005C0C1E0112319F0C0E001C0C2E062E3D2
:1044000070E08FE00E946505882309F461C00E9476
:10441000BF1C5EC00E94A60A62E370E08EE00E94AC
:104420006505D1E08111D0E062E370E080E10E9497
:1044300065058111C1E062E370E081E10E946505DC
:104440008111C3E062E370E08FE00E94650588237C
:1044500009F43EC00E94EF1E3BC00E94700B62E355
:1044600070E08EE00E946505D1E08111D0E062E34A
:1044700070E080E10E9465058111C2E062E370E0B6
:1044800081E10E9465058111C4E062E370E08FE084
:104490000E9465058823E1F00E944D1A19C00E9410
:1044A000600D62E370E08EE00E946505D1E081114D
:1044B000D0E062E370E080E10E9465058111C3E015
:1044C00062E370E08FE00E94650581110E947E1416
:1044D000D1114ACF83E096E0DF91CF911F910C94E8
:1044E0006E2F20E044E064E183E096E00E948F2F8D
:1044F00062E080E10E94123662E081E10E941236A1
:1045000062E08EE00E94123662E08FE00E94123676
:1045100061E089E00E94123661E086E00E94123676
:1045200061E088E00E94123661E070E08AE795E081
:104530000E9443340E94311B8091CB05811103C03E
:104540008CE090E002C08DE090E00E94DA03682FDA
:1045500070E080E090E00E94D9396093D1057093BB
:10456000D2058093D3059093D4050E9419130E941D
:104570005C0E4CE151E061E083E096E00E945C302B
:1045800044E151E062E083E096E00E945C304CE060
:1045900051E063E083E096E00E945C3044E051E04B
:1045A00064E083E096E00E945C3045E552E065E01F
:1045B00083E096E00E945C304DE452E066E083E0E8
:1045C00096E00E945C3045E452E067E083E096E0CC
:1045D0000C945C30CF92DF92EF92FF920E94B10D6B
:1045E00088EEC82E83E0D82EE12CF12C0E940D1B02
:1045F000C701B6010E947B358091E0050E94271B10
:104600006EE571E080E090E00E947B358AEFC80E95
:10461000D11CE11CF11C8AECC81688E0D806E10424
:10462000F10421F7FF90EF90DF90CF900C942E09CA
:104630005F926F927F928F929F92AF92BF92CF9232
:10464000DF92EF92FF920F931F93CF93DF93182F78
:104650008EE090E00E94DA03082F8FE090E00E9445
:10466000DA03C82F80E190E00E94DA03E82E81E1AE
:1046700090E00E94DA03F82E82E190E00E94DA03D3
:10468000D82F83E190E00E94DA03582E8091CB0569
:10469000811103C084E190E002C085E190E00E94B6
:1046A000DA03682E111102C0EE2059F08FEF810F4E
:1046B000863018F4F11007C004C0173021F4D1116E
:1046C00002C081E049C07090CA05D0E0BE018827D1
:1046D00077FD8095982F711011C00E94DB392091D1
:1046E000D5053091D6054091D7055091D8050E9447
:1046F0008F3A20E030E04CE852E410C00E94DB39F1
:104700002091D5053091D6054091D7055091D80517
:104710000E948F3A20E030E04CE052E40E944039A1
:104720006B017C018090CD059090CE05A090CF05C7
:10473000B090D005662D70E080E090E00E94DB39FB
:104740009B01AC01C501B4010E948B3A87FD3BC0BF
:10475000711013C08091E005DF91CF911F910F91EF
:10476000FF90EF90DF90CF90BF90AF909F908F9091
:104770007F906F905F900C94271B8091DD058823BC
:10478000D1F0A7019601C701B6010E94D8389B015C
:10479000AC016091D1057091D2058091D3059091C3
:1047A000D4050E94D7389B01AC01C501B4010E9419
:1047B0003C3987FFCFCF81E08093E0050E940D1B3D
:1047C0001092DC0534C0183019F4552019F2F3CFDB
:1047D000193069F1133659F18091C405801758F3E7
:1047E0000E94311B81E08093DC058091C40590E03C
:1047F000C00FD11D8C179D07C4F42091CD053091B9
:10480000CE054091CF055091D0056091D5057091AE
:10481000D6058091D7059091D8050E94D738A70179
:1048200096010E948B3A181614F41092C405DF9179
:10483000CF911F910F91FF90EF90DF90CF90BF909D
:10484000AF909F908F907F906F905F9008958F9220
:104850009F92AF92BF92CF92DF92EF92FF920F930F
:104860001F93CF93DF931F92CDB7DEB7E090C705BC
:10487000F090C80581E089839091CB058091B805BF
:10488000911103C090E0059702C090E003970E9449
:10489000B70420E030E040E85DE30E948F3A609387
:1048A000EA057093EB058093EC059093ED050E946B
:1048B0000D1B1092C4051092FB051092FC0510927E
:1048C000FD051092FE05870111272CE3E29E600191
:1048D0001124EE24D7FCE094FE2C9DE2892E912C2D
:1048E000A12CB12C8981882309F473C042E061E0D6
:1048F00086E00E94880F0E94720E8091CD059091F3
:10490000CE05A091CF05B091D0058093E605909398
:10491000E705A093E805B093E9058091DC058111D6
:1049200003C081E00E94D71686E00E9418234091C0
:10493000FB055091FC056091CD057091CE058091ED
:10494000CF059091D0050E94F5136091FB05709101
:10495000FC058091FD059091FE05A50194010E9442
:10496000163B672B682B692B29F461E470E081E02A
:104970000E94DE0367E870E080E090E00E947B35F3
:10498000CE0101960E946C1B62E370E08EE00E94F3
:104990006505811134C08AE190E00E94DA03882322
:1049A00009F4A0CF2CE3829FC0011124AA2797FD10
:1049B000A095BA2F4091FB055091FC056091FD0533
:1049C0007091FE05481759076A077B0708F48ACFDC
:1049D00016C00E940D1B1092DC051092C4050E94A7
:1049E0002E090F90DF91CF911F910F91FF90EF90C3
:1049F000DF90CF90BF90AF909F908F9008951982D5
:104A000081E08093DA051092FB051092FC0510926C
:104A1000FD051092FE051093C8050093C705C092CE
:104A2000FF05D0920006E0920106F09202065ACFEE
:104A30003F924F925F926F927F928F929F92AF922E
:104A4000BF92CF92DF92EF92FF920F931F93CF937B
:104A5000DF93CDB7DEB72A970FB6F894DEBF0FBE4F
:104A6000CDBF312C1EE1412E512C612C712C409177
:104A7000C7055091C8055A874987141615060CF0CA
:104A80004AC28091DE05882309F445C28091CC0595
:104A900040E06091DD0581500E94880F0E94720EF7
:104AA0008091D5059091D605A091D705B091D805F4
:104AB0008093EA059093EB05A093EC05B093ED0588
:104AC0008091CD059091CE05A091CF05B091D005F4
:104AD0008093E6059093E705A093E805B093E90578
:104AE0000E94391B6FEE75E083EB95E00E9486050E
:104AF0008091DC05882351F14091FF05509100061B
:104B00006091CD057091CE058091CF059091D00533
:104B10000E94D8136091FB057091FC058091FD0502
:104B20009091FE05A30192010E94163B672B682B12
:104B3000692B29F461E470E081E00E94DE0367E8FC
:104B400070E080E090E00E947B3561C18091CC05EF
:104B5000813031F08091FF05909100060E94980805
:104B60008091FF0590910006A0910106B091020688
:104B70000697A105B10528F466E970E081E00E947E
:104B8000DE038091FF0590910006A0910106B0918F
:104B90000206892B8A2B8B2B29F468EE73E081E0C7
:104BA0000E94DE038091CC05883061F48091DA05A3
:104BB000811108C089E190E00E94DA03811102C0EE
:104BC0000E9427241091CC05193009F044C03320ED
:104BD00009F441C02091D1053091D2054091D3050F
:104BE0005091D4056091CD057091CE058091CF058F
:104BF0009091D0050E948B3A87FD2DC0E090EF0583
:104C0000F090F0050091F1051091F205C090B30508
:104C100021E040E064E684EB95E00E94E00720910B
:104C2000CD053091CE054091CF055091D0056091D2
:104C3000B40570E080E090E02D833E834F83588779
:104C40000E94D93901E02D813E814F8158850E9413
:104C50004E1380E0DAC08091CB05212F30E0215047
:104C6000310981111CC0C901880F991F820F931F40
:104C7000FC01EE0FFF1FEE0FFF1FEB51FE4F2081D7
:104C800031814281538129833A834B835C83FC01C8
:104C9000EE0FFF1FEE0FFF1FE751FE4F1BC0C901B4
:104CA000880F991F820F931FFC01EE0FFF1FEE0F5D
:104CB000FF1FEB57FE4F20813181428153812983B1
:104CC0003A834B835C83FC01EE0FFF1FEE0FFF1F47
:104CD000E757FE4F6081718182819381193009F01D
:104CE00054C08091FF0590910006A0910106B091FB
:104CF000020684339840A105B105B9F40E948F09DA
:104D00006EE571E081E00E94DE0363E270E083E023
:104D10000E94DE036AE872E081E00E94DE036CED2F
:104D200075E080E090E00E947B358091CB05811199
:104D30000FC08CE090E00E94DA03682F70E080E002
:104D400090E00E94D93920E030E04CED52E40EC0F2
:104D50008DE090E00E94DA03682F70E080E090E040
:104D60000E94D93920E030E046E653E429833A83B3
:104D70004B835C836D837E838F8398870E94680951
:104D8000312C98858F817E816D818090EF05909088
:104D9000F005A090F105B090F2052091B3052F9396
:104DA000C12CD12C20E8E22E2EE3F22E8B019C01A7
:104DB00049815A816B817C8185ED95E00E940507D0
:104DC0008091CC050F904091D5055091D60560910A
:104DD000D7057091D805893041F44093D10550939F
:104DE000D2056093D3057093D4050091CD05109141
:104DF000CE052091CF053091D00581500E945515E8
:104E00008091DC05811103C081E00E94D7162091BA
:104E1000D5053091D6054091D7055091D8056091C0
:104E2000CD057091CE058091CF059091D0050E945F
:104E30008B3A87FD1FC08091CC05893011F4332453
:104E400033948091DD05811115C081E08093DD05EB
:104E50006AEF70E083E00E94DE038091CC05813030
:104E600029F41092C8051092C70504C0893011F4C6
:104E70000E9412108091CC0581500E9418238091CD
:104E8000CC05893061F429853A8533278091C7059F
:104E90009091C8058217930714F40E9412108EEDAA
:104EA00095E00E946C1B64EC79E08FE00E94650540
:104EB000882309F4DCCD8091CC0590E002970CF4B6
:104EC000D6CD62E370E083E00E94DE030E944C09CD
:104ED00041E062E081E00E9483188823C9F02A96AD
:104EE0000FB6F894DEBF0FBECDBFDF91CF911F91FB
:104EF0000F91FF90EF90DF90CF90BF90AF909F9079
:104F00008F907F906F905F904F903F900C948608A9
:104F10000E948608ACCD2A960FB6F894DEBF0FBE6D
:104F2000CDBFDF91CF911F910F91FF90EF90DF9058
:104F3000CF90BF90AF909F908F907F906F905F9039
:104F40004F903F90089562E370E08FE00E94650506
:104F5000882371F08091E005811105C081E0809384
:104F6000E0050C940D1B1092E00580E00C94271BCB
:104F700008952F923F924F925F926F927F928F92FD
:104F80009F92AF92BF92CF92DF92EF92FF920F93D8
:104F90001F93CF93DF93CDB7DEB72F970FB6F8945B
:104FA000DEBF0FBECDBF8091CB05811105C080E073
:104FB00090E0ACE0B2E404C080E090E0AEEBB2E49C
:104FC00089839A83AB83BC831E828091C90581113A
:104FD00002C00E94110F86E090E00E94DA038093E5
:104FE000B4050E946E0D40E062E080E00E948318EC
:104FF0008E830E941E091092DD051092FB0510920F
:10500000FC051092FD051092FE051092FF0510920E
:105010000006109201061092020681E08D838091B5
:10502000CB05813029F080E090E0A0E0B0E404C03E
:1050300086E696E6A6E6B0E488879987AA87BB87C6
:10504000312C212C1F829CE3492E512C612C712C78
:105050008E81882309F4B5C10E94720EC980DA805E
:10506000EB80FC80C092EA05D092EB05E092EC0563
:10507000F092ED056091CD057091CE058091CF0540
:105080009091D0056093E6057093E7058093E8055D
:105090009093E9052091DD0521110AC0A701960131
:1050A0000E948B3A87FD29C091E09093DD0525C0D1
:1050B000288539854A855B850E94D838A7019601E5
:1050C0000E943C3987FF19C08091B3058130A9F453
:1050D0001092DD051092FB051092FC051092FD0563
:1050E0001092FE054092FF05509200066092010664
:1050F00070920206312C212C1F828091DD058823BD
:1051000051F0AF81A11107C06AEF70E083E00E9407
:10511000DE03B1E0BF8341E06091DD0588E00E94DD
:10512000880F8EE00E948136892B89F48FE00E94DF
:105130008136892B61F46EE571E080E090E00E9499
:105140007B358EE00E948136892B09F457C1CE0150
:1051500006960E946C1B0E94E31A0E94A32733202C
:1051600081F18D812CE3829FC00111240E94980857
:105170006FEE75E083EB95E00E948605E090EF0509
:10518000F090F0050091F1051091F205C090B30583
:1051900021E041E060EFCE0105960E94E0078D819D
:1051A000ACE38A9FC0011124AA2797FDA095BA2FCE
:1051B0008093FF0590930006A0930106B09302062A
:1051C0001CC06FEE75E083EB95E00E948605E090D1
:1051D000D105F090D2050091D3051091D40520910E
:1051E000CD053091CE054091CF055091D005698114
:1051F0007A818B819C810E941815C090EA05D0901D
:10520000EB05E090EC05F090ED052091D105309193
:10521000D2054091D3055091D405C701B6010E9433
:105220008B3A87FD47C0A70196016091CD0570912B
:10523000CE058091CF059091D0050E948B3A87FDD5
:1052400039C0E090EF05F090F0050091F105109164
:10525000F205C090B30521E040E064E684EB95E000
:105260000E94E0072091CD053091CE054091CF05F9
:105270005091D0056091B40570E080E090E02C87FB
:105280003D874E875F870E94D93900E02C853D8598
:105290004E855F850E944E138091DF05882319F0AB
:1052A00080E00E94D7168091E005882309F444C06D
:1052B00088E040C00E9468099091CB058091B305B9
:1052C0008090EF059090F005A090F105B090F20568
:1052D000911110C08F93C12CD12C80E8E82E8EE361
:1052E000F82E00E010E020EA31E440E050E06CED00
:1052F00072E40FC08F93C12CD12C00E8E02E0EE396
:10530000F02E00E010E028E832E440E050E066E6ED
:1053100073E4CE0101960E9405070F908091DF058E
:10532000882319F081E00E94D7168091E005882338
:1053300019F083E60E9418232220E1F18091FF05F5
:10534000909100060E9498088091FF0590910006B8
:10535000A0910106B09102060697A105B10528F4B7
:1053600067E870E081E00E94DE038091FF05909184
:105370000006A0910106B0910206892B8A2B8B2B87
:1053800009F066CE62E573E083E00E94DE031092CE
:10539000FB051092FC051092FD051092FE0540924F
:1053A000FF05509200066092010670920206312CB1
:1053B000212C4ECE8091FB059091FC050E9498080F
:1053C00047CE83E096E00E946E2F2F960FB6F8949A
:1053D000DEBF0FBECDBFDF91CF911F910F91FF9028
:1053E000EF90DF90CF90BF90AF909F908F907F9085
:1053F0006F905F904F903F902F9008958FE00E94A4
:105400008136892B09F0A3CE63E270E082E00E942E
:10541000DE03B1E03B262224239499CE8091E0055F
:105420000E94271B0E943E0986E190E00E94DA0359
:1054300041E062E00E948318811114C06091CD05A3
:105440007091CE058091CF059091D0050E945014A7
:1054500062E370E080E090E00E947B351092C50529
:105460001092DE050E940D1B83E00E947D086CE413
:105470007DE180E090E00C947B3588E08093CC0562
:1054800068E085E590E00E94DC038091E0050E94E1
:10549000271B1092DC051092C4050E945A0986E170
:1054A00090E00E94DA0341E062E00E9483188111DB
:1054B00023C089E490E00E94DA03282F30E0309383
:1054C000C8052093C705682F86E590E00E94DC039D
:1054D0006091CD057091CE058091CF059091D0055A
:1054E0000E94501462E370E080E090E00E947B35FF
:1054F0001092C5051092DE0508958F929F92AF928B
:10550000BF92CF92DF92EF92FF920F931F93CF93B0
:10551000DF9300D01F92CDB7DEB71092FB0510923B
:10552000FC051092FD051092FE051092FF051092E9
:10553000000610920106109202061B828BE190E099
:105540000E94DA039091CB05823061F4911105C07D
:1055500080E090E0AAEAB2E410C080E090E0A9E325
:10556000B3E40BC0911105C080E090E0A0EFB1E47E
:1055700004C080E090E0ACEAB2E48093D50590935B
:10558000D605A093D705B093D80581E00E94271BCC
:105590000E94AD0940E062E080E00E9483188B83A6
:1055A000882309F414C185E08A8311E06A811123FC
:1055B00071F170E080E090E00E94370E6FEE75E0D0
:1055C00083EB95E00E948605E090EF05F090F005F2
:1055D0000091F1051091F205C090B30521E041E082
:1055E0006AE0CE0102960E94E00762E370E08FE07D
:1055F0000E94650511E0811110E062E370E08EE029
:105600000E946505882391F21B8210E0CFCF2CE326
:10561000629FC0011124AA2797FDA095BA2F8093FD
:10562000FF0590930006A0930106B09302060E9426
:105630002E0981E08093E0052CE3822E912CA12C91
:10564000B12C8B81882309F4C2C00E94720E809114
:10565000E0050091CD051091CE052091CF05309148
:10566000D0054091D5055091D6056091D705709130
:10567000D805882311F08AE001C08BE00E945515FF
:105680008BE190E00E94DA032091D5053091D60598
:105690004091D7055091D805823091F46091CD05A5
:1056A0007091CE058091CF059091D0050E943C3934
:1056B000181694F041E061E080E00E94880F0CC071
:1056C0006091CD057091CE058091CF059091D00568
:1056D0000E948B3A87FFEECF0E94A3278091E005BE
:1056E000811162C062E370E08EE00E94650588234C
:1056F00009F447C06091FF05709100068091010692
:1057000090910206A50194010E94163B298383E033
:1057100096E00E946E2FDD24D394DD20A1F16981F3
:1057200070E080E090E00E94370E6FEE75E083EB52
:1057300095E00E948605E090EF05F090F00500915D
:10574000F1051091F205C090B30521E041E06AE057
:10575000CE0101960E94E00762E370E08EE00E94B5
:105760006505882319F00E942E09D12C62E370E0B0
:105770008FE00E946505882381F20E942E098981AD
:105780008A83D12CCACF8A812CE3829FC001112445
:10579000AA2797FDA095BA2F8093FF059093000646
:1057A000A0930106B09302068091FF059091000638
:1057B000A0910106B09102060097A105B10539F04C
:1057C0000E949808CE0103960E946C1B3ACF8BE191
:1057D00090E00E94DA03823011F40E94FF2B0F90B8
:1057E0000F900F90DF91CF911F910F91FF90EF904D
:1057F000DF90CF90BF90AF909F908F9008958F9241
:105800009F92AF92BF92CF92DF92EF92FF920F934F
:105810001F93CF93DF931F92CDB7DEB719820E94FB
:10582000311B0E949B0940E062E080E00E948318E7
:1058300089830E942E098981882309F460C08091A0
:10584000CA05813009F05BC00E940D1B58C00E9440
:10585000720E0E94A3276FEE75E083EB95E00E9425
:1058600086059091CB058090EF059090F005A09073
:10587000F105B090F2058091B305911144C08F936A
:10588000C12CD12C40E8E42E4EE3F42E00E010E0D1
:1058900020E231E440E050E060EF71E485ED95E016
:1058A0000E9405070F900091CD051091CE05209123
:1058B000CF053091D0054091D5055091D605609126
:1058C000D7057091D80589E00E945515CE01019643
:1058D0000E946C1B2091D5053091D6054091D705CB
:1058E0005091D8056091CD057091CE058091CF057E
:1058F0009091D0050E943C3918160CF019828981CC
:105900008111A5CF10C08F93C12CD12C30E8E32E8C
:105910003EE3F32E00E010E028E432E440E050E003
:105920006CEA72E4BBCF8BE190E00E94DA03813035
:1059300011F40E947D2A0F90DF91CF911F910F915A
:10594000FF90EF90DF90CF90BF90AF909F908F909F
:1059500008950E941C0E80E190E00E94DA038130DD
:1059600019F40E940D1B03C081E00E94131B41E04B
:1059700061E081E00E948318882359F308951F9302
:10598000CF93DF9380E28093B8058091C9058111A0
:1059900002C00E94110F84E590E00E94DA03882380
:1059A000D9F00E947C0D40E062E080E00E94831804
:1059B0008093DB05882381F085E590E00E94DA037F
:1059C0008093CC05982F990F990F980F905E909324
:1059D000B80581E08093DE050E942E098091DB05E9
:1059E00081111FC00E946E0D40E062E080E00E94C5
:1059F00083188093DE050E942E098091DE0588239E
:105A000009F465C11092B60560E087E590E00E9458
:105A1000DC031092C4051092DC050E94EA22109269
:105A2000CC058091D90581110E94971B0E944C35AD
:105A30006093F7057093F8058093F9059093FA0544
:105A40008091DE05811106C08091DE05882309F46E
:105A500037C1A6C061E084E590E00E94DC03C091FC
:105A6000CC05D1E01CE3C83078F76091CC0585E522
:105A700090E00E94DC038091CC058F5F8093CC0581
:105A80001092DD051092DC051092C4059091CB05B3
:105A90008091B805911102C090E002C090E002969A
:105AA0000E94990420E030E040E85DE30E948F3AD4
:105AB0006093D5057093D6058093D7059093D8054C
:105AC0008091DB05882361F086E590E00E94DA038F
:105AD00090E09093C8058093C7051092DB051DC028
